{
  "contractName": "PmuVoting",
  "abi": [
    {
      "constant": true,
      "inputs": [],
      "name": "whocalledset",
      "outputs": [
        {
          "name": "",
          "type": "uint256"
        }
      ],
      "payable": false,
      "stateMutability": "view",
      "type": "function"
    },
    {
      "constant": true,
      "inputs": [],
      "name": "trigger",
      "outputs": [
        {
          "name": "",
          "type": "bool"
        }
      ],
      "payable": false,
      "stateMutability": "view",
      "type": "function"
    },
    {
      "constant": true,
      "inputs": [],
      "name": "whogotcall",
      "outputs": [
        {
          "name": "",
          "type": "uint256"
        }
      ],
      "payable": false,
      "stateMutability": "view",
      "type": "function"
    },
    {
      "constant": true,
      "inputs": [],
      "name": "getcall",
      "outputs": [
        {
          "name": "",
          "type": "bool"
        }
      ],
      "payable": false,
      "stateMutability": "view",
      "type": "function"
    },
    {
      "constant": true,
      "inputs": [],
      "name": "finalCall",
      "outputs": [
        {
          "name": "",
          "type": "uint256"
        }
      ],
      "payable": false,
      "stateMutability": "view",
      "type": "function"
    },
    {
      "anonymous": false,
      "inputs": [
        {
          "indexed": false,
          "name": "s",
          "type": "string"
        },
        {
          "indexed": false,
          "name": "i",
          "type": "uint256"
        },
        {
          "indexed": false,
          "name": "k",
          "type": "uint256"
        }
      ],
      "name": "getValue",
      "type": "event"
    },
    {
      "constant": false,
      "inputs": [],
      "name": "registerPmu",
      "outputs": [],
      "payable": false,
      "stateMutability": "nonpayable",
      "type": "function"
    },
    {
      "constant": false,
      "inputs": [
        {
          "name": "o",
          "type": "uint256"
        },
        {
          "name": "_voltage",
          "type": "int256"
        },
        {
          "name": "_current",
          "type": "int256"
        },
        {
          "name": "_frequency",
          "type": "int256"
        }
      ],
      "name": "setData",
      "outputs": [],
      "payable": false,
      "stateMutability": "nonpayable",
      "type": "function"
    },
    {
      "constant": false,
      "inputs": [],
      "name": "getFinalCall",
      "outputs": [
        {
          "name": "",
          "type": "bool"
        }
      ],
      "payable": false,
      "stateMutability": "nonpayable",
      "type": "function"
    },
    {
      "constant": true,
      "inputs": [],
      "name": "getValueCall",
      "outputs": [
        {
          "name": "",
          "type": "uint256"
        }
      ],
      "payable": false,
      "stateMutability": "view",
      "type": "function"
    },
    {
      "constant": false,
      "inputs": [],
      "name": "setFault",
      "outputs": [],
      "payable": false,
      "stateMutability": "nonpayable",
      "type": "function"
    }
  ],
  "bytecode": "0x6080604052600080556000600160006101000a81548160ff02191690831515021790555060006001806101000a81548160ff02191690831515021790555060006003556000600455600060085534801561005857600080fd5b50610a69806100686000396000f3006080604052600436106100a4576000357c0100000000000000000000000000000000000000000000000000000000900463ffffffff168063438e4cea146100a957806359052d2e146100d85780637fec8d3814610103578063957f38b4146101325780639abf89ef1461015d578063c005042d146101a8578063dae4d450146101d7578063e7dff327146101ee578063f2a875f814610219578063fac1f5bd14610244575b600080fd5b3480156100b557600080fd5b506100be61025b565b604051808215151515815260200191505060405180910390f35b3480156100e457600080fd5b506100ed6102fb565b6040518082815260200191505060405180910390f35b34801561010f57600080fd5b50610118610301565b604051808215151515815260200191505060405180910390f35b34801561013e57600080fd5b50610147610314565b6040518082815260200191505060405180910390f35b34801561016957600080fd5b506101a66004803603810190808035906020019092919080359060200190929190803590602001909291908035906020019092919050505061031a565b005b3480156101b457600080fd5b506101bd6106f6565b604051808215151515815260200191505060405180910390f35b3480156101e357600080fd5b506101ec610708565b005b3480156101fa57600080fd5b50610203610a11565b6040518082815260200191505060405180910390f35b34801561022557600080fd5b5061022e610a17565b6040518082815260200191505060405180910390f35b34801561025057600080fd5b50610259610a21565b005b6000806000600560003373ffffffffffffffffffffffffffffffffffffffff1673ffffffffffffffffffffffffffffffffffffffff168152602001908152602001600020549150600115156001809054906101000a900460ff1615151480156102c75750600060085414155b15156102d257600080fd5b600060085411156102e657600190506102eb565b600090505b6000600881905550809250505090565b60035481565b600160009054906101000a900460ff1681565b60045481565b6000806000600560003373ffffffffffffffffffffffffffffffffffffffff1673ffffffffffffffffffffffffffffffffffffffff16815260200190815260200160002054925060011515600160009054906101000a900460ff1615151480156103b657506000151560068481548110151561039257fe5b90600052602060002090602091828204019190069054906101000a900460ff161515145b15156103c157600080fd5b60016006848154811015156103d257fe5b90600052602060002090602091828204019190066101000a81548160ff0219169083151502179055508660028481548110151561040b57fe5b9060005260206000209060070201600301819055508560028481548110151561043057fe5b9060005260206000209060070201600401819055508460028481548110151561045557fe5b9060005260206000209060070201600501819055508360028481548110151561047a57fe5b9060005260206000209060070201600601819055506003600081548092919060010191905055507f0929cdbf69fe33a2ce41fa50776c4bdfa1bf79b121180ba07f092a502b89d2196003546000546040518080602001848152602001838152602001828103825260098152602001807f77686f63616c6c65640000000000000000000000000000000000000000000000815250602001935050505060405180910390a160005460035414156106ed576000600160006101000a81548160ff0219169083151502179055506000600381905550600060088190555060009050600091505b6000548210156106585760028281548110151561057657fe5b90600052602060002090600702016003015460086000828254019250508190555060006006838154811015156105a857fe5b90600052602060002090602091828204019190066101000a81548160ff0219169083151502179055507f0929cdbf69fe33a2ce41fa50776c4bdfa1bf79b121180ba07f092a502b89d219826008546040518080602001848152602001838152602001828103825260078152602001807f7365744461746100000000000000000000000000000000000000000000000000815250602001935050505060405180910390a1818060010192505061055d565b60018060016101000a81548160ff0219169083151502179055507f0929cdbf69fe33a2ce41fa50776c4bdfa1bf79b121180ba07f092a502b89d2198260085460405180806020018481526020018381526020018281038252600c8152602001807f66696e616c20726573756c740000000000000000000000000000000000000000815250602001935050505060405180910390a15b50505050505050565b6001809054906101000a900460ff1681565b600060086000541115151561071c57600080fd5b600260e06040519081016040528060008152602001600073ffffffffffffffffffffffffffffffffffffffff168152602001600081526020016000815260200160008152602001600081526020016000815250908060018154018082558091505090600182039060005260206000209060070201600090919290919091506000820151816000015560208201518160010160006101000a81548173ffffffffffffffffffffffffffffffffffffffff021916908373ffffffffffffffffffffffffffffffffffffffff16021790555060408201518160020155606082015181600301556080820151816004015560a0820151816005015560c0820151816006015550505033600260005481548110151561083257fe5b906000526020600020906007020160010160006101000a81548173ffffffffffffffffffffffffffffffffffffffff021916908373ffffffffffffffffffffffffffffffffffffffff1602179055506000600260005481548110151561089457fe5b906000526020600020906007020160030181905550339050600054600560008373ffffffffffffffffffffffffffffffffffffffff1673ffffffffffffffffffffffffffffffffffffffff1681526020019081526020016000208190555060066000908060018154018082558091505090600182039060005260206000209060209182820401919006909192909190916101000a81548160ff0219169083151502179055505060076000908060018154018082558091505090600182039060005260206000209060209182820401919006909192909190916101000a81548160ff021916908315150217905550507f0929cdbf69fe33a2ce41fa50776c4bdfa1bf79b121180ba07f092a502b89d21960005460176040518080602001848152602001838152602001828103825260088152602001807f7265676973746572000000000000000000000000000000000000000000000000815250602001935050505060405180910390a1600080815480929190600101919050555050565b60085481565b6000600854905090565b60018060006101000a81548160ff0219169083151502179055505600a165627a7a72305820a784431ae0a97fe6461bc4cdfd3ce9e8cd6134b03ece09dc0143a23c3144bb030029",
  "source": "pragma solidity ^0.4.24;\n\ncontract PmuVoting\n{   \n    struct pmu\n    {\n        uint key;   //key is assigned to each of the pmu\n        address addr;\n        int faultval; uint opinion; int voltage; int current; int frequency;\n    }\n    \n    uint no_of_pmu = 0;\n    bool public trigger=false;\n    bool public getcall=false;\n    pmu[] pmu_network;\n    uint public whocalledset=0;\n    uint public  whogotcall=0;\n    mapping(address=>uint)  pmumap;  //map from addr to key\n    bool[] hassetdata;\n    bool[] hasgotcall;\n    uint public finalCall = 0;\n\n    bool res;\n\n    event getValue(string s,uint i,uint k);\n    \n    function registerPmu() public\n    {\n        require(no_of_pmu <= 8); \n        \n        pmu_network.push(pmu(0,0,0,0,0,0,0));   //dummy values\n        \n        pmu_network[no_of_pmu].addr = msg.sender;     //actual value\n        pmu_network[no_of_pmu].opinion = 0; //opinion=0 =>no opinion; opinion=1 =>dont trip; opinion=-1 =>trip;\n        address addr=msg.sender;\n        pmumap[addr] = no_of_pmu;\n        hassetdata.push(false);\n        hasgotcall.push(false);\n        emit getValue(\"register\",no_of_pmu,23);\n        no_of_pmu++;\n    }\n \n    function setData(uint o, int _voltage,int _current,int _frequency) public\n    {\n        uint k = pmumap[msg.sender];\n        require(trigger==true && hassetdata[k]==false);\n        hassetdata[k]=true;\n        pmu_network[k].opinion = o;\n        pmu_network[k].voltage = _voltage;\n        pmu_network[k].current = _current;\n        pmu_network[k].frequency = _frequency;\n        whocalledset++;\n        emit getValue(\"whocalled\",whocalledset,no_of_pmu);\n        if(whocalledset==no_of_pmu)\n        {\n            trigger=false;\n            whocalledset=0;\n            finalCall = 0;\n            uint i; uint ctr=0;\n                for(i = 0; i < no_of_pmu; i++)\n                {\n                    finalCall += pmu_network[i].opinion;\n                    hassetdata[i]=false;\n                    emit getValue(\"setData\",i,finalCall);\n                }\n            getcall=true;\n            emit getValue(\"final result\",i,finalCall);\n \n        }\n        \n    }\n \n    function getFinalCall() public returns(bool)\n    {\n    uint a=pmumap[msg.sender];\n    require(getcall==true && finalCall!=0);\n    bool res;\n        if(finalCall>0)\n        {\n            res=true;\n        }\n        else \n        {\n            res= false;\n        }\n\n    finalCall=0;\n    return res;\n \n    }\n\n\n    function getValueCall()public constant returns(uint)\n    {\n        return finalCall;\n    }\n\n \n    function setFault() public //constant returns(bool)\n    {\n     \n        trigger=true;\n    }\n    \n}\n\n\n",
  "sourcePath": "/home/snehal/Blockchain Truffle/contracts/pmu.sol",
  "compiler": {
    "name": "solc",
    "version": "0.4.24+commit.e67f0147.Emscripten.clang"
  },
  "schemaVersion": "2.0.1",
  "updatedAt": "2018-10-20T10:45:00.790Z"
}